:020000040800F2
:10000000380500201D0A0008790A0008790A00084E
:10001000790A0008790A0008790A0008000000003F
:10002000000000000000000000000000790A000845
:10003000790A000800000000790A0008790A00081F
:10004000790A0008790A0008790A0008790A000884
:10005000790A0008790A0008790A0008790A000874
:10006000790A0008790A0008790A0008790A000864
:10007000790A0008790A0008790A0008790A000854
:10008000790A0008790A0008790A0008790A000844
:10009000790A0008790A0008790A0008790A000834
:1000A000790A0008790A0008790A0008790A000824
:1000B000790A000811160008790A0008790A000870
:1000C000790A0008790A0008790A0008790A000804
:1000D000790A0008790A000845130008790A00081F
:1000E000790A0008790A0008790A0008790A0008E4
:1000F000790A0008790A0008790A0008790A0008D4
:10010000790A0008790A0008790A0008790A0008C3
:10011000790A0008790A0008790A0008790A0008B3
:10012000790A0008790A0008790A0008790A0008A3
:100130005FF808F180B485B000AF786039600023C3
:10014000FB817B681B88FB817B682E4A934213D01E
:100150007B682D4A93420FD07B68B3F1804F0BD060
:100160007B682A4A934207D07B68294A934203D08E
:100170007B68284A934208D1FB8923F07003FB81F6
:100180003B685A88FB891343FB817B68224A934270
:100190000CD07B68214A934208D0FB8923F440733A
:1001A000FB813B68DA88FB891343FB817B68FA8912
:1001B0001A803B689A887B689A853B681A887B68B6
:1001C0001A857B680F4A93420FD07B680E4A934290
:1001D0000BD07B68124A934207D07B68114A934246
:1001E00003D07B68104A934204D13B681B7A9AB2D1
:1001F0007B681A867B6801229A821437BD465DF8B7
:10020000047B7047002C0140003401400004004092
:1002100000080040000C00400010004000140040A6
:1002200000400140004401400048014080B582B0D8
:1002300000AF786039603B681B88002B0FD13B68AA
:1002400059883B689A883B681B89786800F050F9A8
:100250003B68DB887868194600F080F836E03B6838
:100260001B88042B0FD13B6859883B689A883B68F0
:100270001B89786800F0ACF93B68DB887868194620
:1002800000F088F822E03B681B88082B0FD13B6800
:1002900059883B689A883B681B89786800F012FA95
:1002A0003B68DB887868194600F092F80EE03B68FE
:1002B00059883B689A883B681B89786800F078FA0F
:1002C0003B68DB887868194600F09EF80837BD4621
:1002D00080BD00BF80B483B000AF78600B46FB7078
:1002E000FB78002B08D07B681B889BB243F001038E
:1002F0009AB27B681A8007E07B681B889BB223F068
:1003000001039AB27B681A800C37BD465DF8047B06
:10031000704700BF80B483B000AF78600B467B802D
:1003200013467B707B78002B08D07B689B899AB240
:100330007B8813439AB27B689A8109E07B689B892A
:100340009AB27B88DB439BB213409AB27B689A8156
:100350000C37BD465DF8047B704700BF80B483B0A6
:1003600000AF78600B467B807B681B8B9BB223F0D1
:100370000C039AB27B681A837B681B8B9AB27B88CA
:1003800013439AB27B681A830C37BD465DF8047B31
:10039000704700BF80B483B000AF78600B467B80AD
:1003A0007B681B8B9BB223F440639AB27B681A83F1
:1003B0007B681B8B9AB27B881B029BB213439AB259
:1003C0007B681A830C37BD465DF8047B704700BF1D
:1003D00080B483B000AF78600B467B807B689B8BDA
:1003E0009BB223F00C039AB27B689A837B689B8B49
:1003F0009AB27B8813439AB27B689A830C37BD46C6
:100400005DF8047B704700BF80B483B000AF7860B4
:100410000B467B807B689B8B9BB223F440639AB234
:100420007B689A837B689B8B9AB27B881B029BB20A
:1004300013439AB27B689A830C37BD465DF8047B00
:10044000704700BF80B483B000AF78607B681B8FBB
:100450009BB218460C37BD465DF8047B704700BF61
:1004600080B483B000AF78607B689B8C9BB21846E9
:100470000C37BD465DF8047B704700BF80B485B083
:1004800000AF78600B467B800023FB730023BB81A9
:1004900000237B817B681B8A9AB27B881340BB81D7
:1004A0007B689B899AB27B8813407B81BB89002B38
:1004B00005D07B89002B02D00123FB7301E00023D0
:1004C000FB73FB7B18461437BD465DF8047B704711
:1004D00080B483B000AF78600B467B807B88DB43C1
:1004E0009AB27B681A820C37BD465DF8047B704770
:1004F00080B487B000AFF860084611461A4603463C
:100500007B810B463B811346FB800023BB8200238B
:10051000FB82FB681B8C9BB223F001039AB2FB6841
:100520001A84FB681B8BBB82FB681B8CFB82BB8A1B
:1005300023F0F303BB82FB881B019AB23B89134370
:100540009AB2BB8A1343BB82FB681C4A934213D006
:10055000FB681B4A93420FD0FB68B3F1804F0BD06E
:10056000FB68184A934207D0FB68174A934203D0AE
:10057000FB68164A93420BD1FB8A23F00203FB82ED
:100580007A89FB8A13439BB243F00103FB820AE0A2
:10059000FB8A23F00A03FB827A89FB8A13439BB20E
:1005A00043F00103FB82FB68BA8A1A83FB68FA8A6C
:1005B0001A841C37BD465DF8047B7047002C01404F
:1005C000003401400004004000080040000C0040DE
:1005D00080B487B000AFF860084611461A4603465B
:1005E0007B810B463B811346FB800023BB820023AB
:1005F000FB8200237B82FB681B8C9BB223F01003E1
:100600009AB2FB681A84FB681B8BBB82FB681B8C4D
:10061000FB827B891B017B82BB8A23F440731B0511
:100620001B0DBB82FB881B039AB2BB8A1343BB82A0
:100630003B891B029AB2BB8A1343BB82FB681C4AEC
:10064000934213D0FB681B4A93420FD0FB68B3F16F
:10065000804F0BD0FB68184A934207D0FB68174ABB
:10066000934203D0FB68164A93420BD1FB8A23F0D6
:100670002003FB827A8AFB8A13439BB243F0100368
:10068000FB820AE0FB8A23F0A003FB827A89FB8AC3
:1006900013439BB243F01003FB82FB68BA8A1A83B0
:1006A000FB68FA8A1A841C37BD465DF8047B7047E4
:1006B000002C0140003401400004004000080040CC
:1006C000000C004080B487B000AFF86008461146C7
:1006D0001A4603467B810B463B811346FB80002371
:1006E000BB820023FB8200237B82FB681B8C9BB2B6
:1006F00023F480739AB2FB681A84FB689B8BBB82DD
:10070000FB681B8CFB827B891B027B82BB8A23F0EC
:10071000F303BB82FB881B019AB23B8913439AB255
:10072000BB8A1343BB82FB681C4A934213D0FB680D
:100730001B4A93420FD0FB68B3F1804F0BD0FB688C
:10074000184A934207D0FB68174A934203D0FB68CC
:10075000164A93420BD1FB8A23F40073FB827A8AF8
:10076000FB8A13439BB243F48073FB820AE0FB8A4B
:1007700023F42063FB827A89FB8A13439BB243F400
:100780008073FB82FB68BA8A9A83FB68FA8A1A84B0
:100790001C37BD465DF8047B704700BF002C01404C
:1007A000003401400004004000080040000C0040FC
:1007B00080B487B000AFF860084611461A46034679
:1007C0007B810B463B811346FB800023BB820023C9
:1007D000FB8200237B82FB681B8C9BB223F480533B
:1007E0009AB2FB681A84FB689B8BBB82FB681B8CEC
:1007F000FB827B891B037B82BB8A23F440731B052E
:100800001B0DBB823B891B029AB2BB8A1343BB827E
:10081000FB881B039AB2BB8A1343BB82FB681D4A49
:10082000934213D0FB681C4A93420FD0FB68B3F18C
:10083000804F0BD0FB68194A934207D0FB68184AD7
:10084000934203D0FB68174A93420BD1FB8A23F4EF
:100850000053FB827A8AFB8A13439BB243F4805392
:10086000FB820CE0FB8A23F400735B045B0CFB82CD
:100870007A89FB8A13439BB243F48053FB82FB6863
:10088000BA8A9A83FB68FA8A1A841C37BD465DF8D7
:10089000047B7047002C01400034014000040040FC
:1008A00000080040000C004080B500AF154A154B11
:1008B0001B6843F0010313601249124B5A68124B34
:1008C00013404B600F4A0F4B1B6823F0847323F4D3
:1008D000803313600B4A0B4B1B6823F48023136097
:1008E000084A084B5B6823F4FE035360054B4FF442
:1008F0001F029A6000F00CF8044B4FF000629A60FF
:1009000080BD00BF001002400000FFF800ED00E0D5
:1009100080B500AF00F002F880BD00BF80B483B0A6
:1009200000AF00237B6000233B603A4A394B1B68D1
:1009300043F480331360374B1B6803F400333B6090
:100940007B6801337B603B68002B03D17B68B3F588
:10095000A06FF0D12F4B1B6803F40033002B02D0A3
:1009600001233B6001E000233B603B68012B4BD13E
:10097000294A294B1B6843F010031360264A264B73
:100980001B6823F003031360234A234B1B6843F0C7
:10099000020313601F4A1F4B5B6853601D4A1D4BC7
:1009A0005B6853601B4A1B4B5B6843F48063536076
:1009B000184A184B5B6823F47C135360154A154B97
:1009C0005B6843F4E8135360124A124B1B6843F010
:1009D0008073136000BF0F4B1B6803F00073002B84
:1009E000F9D00C4A0B4B5B6823F003035360094AB0
:1009F000084B5B6843F00203536000BF054B5B6824
:100A000003F00C03082BF9D10C37BD465DF8047BCD
:100A1000704700BF001002400020024080B582B045
:100A200000AF104B7B60104B3B6007E03B681A1D2A
:100A30003A607A68111D796012681A603B680B4A47
:100A40009342F3D30A480B494FF000028842B8BFE3
:100A500040F8042BFADBFFF727FF00F0D1F8083746
:100A6000BD4680BD4818000800000020140000208A
:100A7000140000203801002080B400AFFEE700BF62
:100A800080B489B000AF786039600023FB61002337
:100A90003B610023BB610023FB6000237B610023DB
:100AA000BB603B68DB7803F00F03FB613B68DB78DE
:100AB00003F01003002B05D03B689B781A46FB69B6
:100AC0001343FB613B681B88DBB2002B44D07B687F
:100AD0001B687B610023BB6138E0BB69012202FA1D
:100AE00003F3FB603B681B881A46FB6813403B61BD
:100AF0003A69FB689A4226D1BB699B00FB60FB68A0
:100B00000F2202FA03F3BB60BB68DB437A69134030
:100B10007B61FB68FA6902FA03F37A6913437B612C
:100B20003B68DB78282B05D1BB6901229A407B68A2
:100B30005A6108E03B68DB78482B04D1BB6901228D
:100B40009A407B681A61BB690133BB61BB69072BA3
:100B5000C3D97B687A691A603B681B88FF2B4AD926
:100B60007B685B687B610023BB613EE0BB69083347
:100B70001A4601239340FB603B681B881A46FB68BA
:100B800013403B613A69FB689A422BD1BB699B00D9
:100B9000FB60FB680F2202FA03F3BB60BB68DB4318
:100BA0007A6913407B61FB68FA6902FA03F37A6998
:100BB00013437B613B68DB78282B07D1BB69083383
:100BC0001A46012303FA02F27B685A613B68DB781C
:100BD000482B07D1BB6908331A46012303FA02F2F6
:100BE0007B681A61BB690133BB61BB69072BBDD947
:100BF0007B687A695A602437BD465DF8047B70478C
:100C000080B582B000AF00F00FFB00F0A9FC00F04F
:100C10008FFC00F019FD00F06BFC4FF08040FFF7F7
:100C20001FFC03461A46274B1A60264B1A68264BB0
:100C30001B689A420FD2234B1A68234B1B68D31AA6
:100C400003F543435033B3F5FA6F10D91D4B1B68BE
:100C50001D4A13600BE01B4B1A681B4B1B68D31A11
:100C6000B3F5FA6F03D9174B1B68174A1360174B7C
:100C70001B78012B04D1154B00221A7000F03AFDAD
:100C8000134A134BDB6883F04003D36000237B607F
:100C900002E07B6801337B607B68B3F5803FF8DB63
:100CA0000B4A0B4BDB6883F40073D36000237B603B
:100CB00002E07B6801337B607B68B3F5803FF8DB43
:100CC000ABE700BF14000020180000202E00002019
:100CD000001C014080B487B000AF786000237B61C6
:100CE00000233B610023FB600023BB604D4B5B682E
:100CF00003F00C037B617B69042B07D0082B09D020
:100D0000002B34D17B68484A1A6034E07B68464A3D
:100D10001A6030E0434B5B6803F470133B61414B56
:100D20005B6803F48033FB603B699B0C02333B61DF
:100D3000FB68002B06D13B693C4A02FB03F27B684F
:100D40001A6013E0374B5B6803F40033002B06D0C6
:100D50003B69364A02FB03F27B681A6006E03B6996
:100D6000314A02FB03F27B681A6004E003E07B680F
:100D70002D4A1A6000BF2B4B5B6803F0F0037B61C8
:100D80007B691B097B612A4A7B6913441B78DBB2B0
:100D9000BB607B681A68BB68DA407B685A60214B8D
:100DA0005B6803F4E0637B617B691B0A7B61204A1B
:100DB0007B6913441B78DBB2BB607B685A68BB68F5
:100DC000DA407B689A60174B5B6803F460537B6181
:100DD0007B69DB0A7B61164A7B6913441B78DBB2B3
:100DE000BB607B685A68BB68DA407B68DA600D4B91
:100DF0005B6803F440437B617B699B0B7B610D4A1D
:100E00007B6913441B78DBB2BB607B68DA68BB6824
:100E1000B2FBF3F27B681A611C37BD465DF8047BB8
:100E2000704700BF0010024000127A0000093D0028
:100E3000000000201000002080B483B000AF786074
:100E40000B46FB70FB78002B06D00949084B9A69CA
:100E50007B6813438B6106E00549054B9A697B6803
:100E6000DB4313408B610C37BD465DF8047B704754
:100E70000010024080B483B000AF78600B46FB7076
:100E8000FB78002B06D00949084BDA697B681343CD
:100E9000CB6106E00549054BDA697B68DB4313400B
:100EA000CB610C37BD465DF8047B704700100240F3
:100EB00080B58CB000AF786039600023FB620023FE
:100EC000BB6200237B6200233B620023FB617B68E3
:100ED000FB617B681B8A9BB2FB62FA6A4CF6FF736C
:100EE0001340FB623B68DB881A46FB6A1343FB62D4
:100EF000FB6A9AB27B681A827B689B899BB2FB6211
:100F0000FA6A4EF6F3131340FB623B689A883B681B
:100F10001B8913439AB23B685B8913439BB21A4601
:100F2000FB6A1343FB62FB6A9AB27B689A817B6817
:100F30009B8A9BB2FB62FA6A4FF6FF431340FB6247
:100F40003B689B891A46FB6A1343FB62FB6A9AB2B1
:100F50007B689A8207F108031846FFF7BBFEFB691E
:100F60002E4A934202D17B69BB6201E03B69BB62BE
:100F70007B689B899BB29BB21BB2002B0CDABA6ACE
:100F800013469B0013449A001A443B681B685B009D
:100F9000B2FBF3F37B620BE0BA6A13469B00134487
:100FA0009A001A443B681B689B00B2FBF3F37B6218
:100FB0007B6A1B4AA2FB03235B091B01FB62FB6AE2
:100FC0001B09642202FB03F37A6AD31A3B627B6833
:100FD0009B899BB29BB21BB2002B0CDA3B6ADB00F5
:100FE00032330F4AA2FB03235B0903F00703FA6ABB
:100FF0001343FB620BE03B6A1B013233084AA2FB3E
:1010000003235B0903F00F03FA6A1343FB62FB6AD5
:101010009AB27B681A813037BD4680BD00380140E6
:101020001F85EB5180B483B000AF78600B46FB7036
:10103000FB78002B08D07B689B899BB243F400535C
:101040009AB27B689A8107E07B689B899BB223F404
:1010500000539AB27B689A810C37BD465DF8047BD9
:10106000704700BF80B487B000AF78600B467B80CC
:1010700013467B7000233B610023FB600023BB60B1
:1010800000237B617B687B617B88DBB25B09DBB221
:101090003B617B8803F01F03FB60FB68012202FABF
:1010A00003F3BB603B69012B03D17B690C337B618C
:1010B00009E03B69022B03D17B6910337B6102E0BD
:1010C0007B6914337B617B78002B06D07B697A695E
:1010D0001168BA680A431A6006E07B697A69116888
:1010E000BA68D2430A401A601C37BD465DF8047BDB
:1010F000704700BF80B483B000AF78600B467B8040
:101100007B88C3F308039AB27B689A800C37BD468C
:101110005DF8047B704700BF80B483B000AF786097
:101120007B689B889BB2C3F308039BB218460C37BD
:10113000BD465DF8047B704780B485B000AF786031
:101140000B467B800023FB737B681B889AB27B88ED
:1011500013409BB2002B02D00123FB7301E000235C
:10116000FB73FB7B18461437BD465DF8047B704764
:1011700080B487B000AF78600B467B800023FB60B3
:1011800000237B610023BB600023FB747B88DBB200
:101190005B09DBB2BB607B8803F01F037B617B696B
:1011A000012202FA03F37B61BB68012B07D17B6844
:1011B0009B899BB21A467B6913407B6111E0BB6837
:1011C000022B07D17B681B8A9BB21A467B691340AE
:1011D0007B6106E07B689B8A9BB21A467B69134061
:1011E0007B617B881B0A9BB2FB60FB68012202FAD1
:1011F00003F3FB607B681B889BB21A46FB681340B5
:10120000FB607B69002B05D0FB68002B02D001231B
:10121000FB7401E00023FB74FB7C18461C37BD46C1
:101220005DF8047B704700BF80B586B000AF042036
:101230000121FFF701FE4FF400300121FFF71AFEF4
:101240000423BB821823FB750323BB7507F114032A
:101250001F481946FFF714FC0823BB820423FB75C3
:1012600007F114031A481946FFF70AFC26233B70BE
:1012700000237B700023BB700123FB703B461846A4
:1012800000F076FA4FF4E1337B6000233B810023CA
:101290007B810023BB8100233B820C23FB813B1D10
:1012A0000C481946FFF704FE0A480121FFF7BAFE71
:1012B000084840F225510122FFF7D4FE054840F2CC
:1012C00027710122FFF7CEFE1837BD4680BD00BF53
:1012D000000801400044004080B582B000AF0346E2
:1012E000FB71144B1B889BB25A1C91B2114A11809E
:1012F0001946114AFB795354104840F227710022D5
:10130000FFF7B0FE0E4B1B889BB201339AB20C4B19
:101310001A800A4840F227710122FFF7A3FE054B0D
:101320001B889BB2642B02D1024B00221A80083723
:10133000BD4680BD24000020AC00002000440040D9
:101340002600002098B500AF2B4B1B889BB203F002
:101350002003002B1DD0294B1B889BB25A1C91B235
:10136000264A11801C462448FFF7D6FE0346DAB20F
:10137000234B1A55234B1B889BB201339AB2214B46
:101380001A801E4B1B889BB2642B02D11B4B002280
:101390001A80194840F22771FFF7EAFE0346012B35
:1013A00029D1194B1B889BB2002B06D1124840F261
:1013B00027710022FFF756FE1DE0144B1B889BB2DD
:1013C0005A1C91B2114A11801A46114B9B5C9BB278
:1013D00009481946FFF78EFE0B4B1B889BB2013B59
:1013E0009AB2094B1A80094B1B889BB2642B02D11D
:1013F000064B00221A8098BD004400401C000020CB
:1014000048000020200000202600002022000020AC
:10141000AC00002080B487B000AF78603960002352
:101420007B6100233B613B68FB6008E03B69013363
:101430003B61FB681C4AA2FB0323DB08FB60FB68E3
:10144000002BF3D11FE03968174BA3FB0123DA0807
:1014500013469B0013445B00CA1ABA603B68124AE9
:10146000A2FB0323DB083B607B69DA433B6913443F
:101470001A467B681344BA68D2B23032D2B21A70BC
:101480007B6901337B617A693B699A42DBDB3B69AB
:101490007A68134400221A703B6918461C37BD460F
:1014A0005DF8047B704700BFCDCCCCCC80B582B05A
:1014B00000AF7860396010E07B685A1C7A601B7856
:1014C0009BB20A481946FFF715FE00BF07484021A6
:1014D000FFF732FE0346002BF8D03B685A1E3A60F5
:1014E000002BE9D10837BD4680BD00BF0044004055
:1014F00080B584B000AF01200121FFF7BBFC48F6A6
:101500009F43BB804CF250333B8100237B810023FF
:10151000FB803B1D05481946FEF70CFE4FF080404E
:101520000121FEF7D7FE1037BD4680BD0004004004
:1015300080B582B000AF80200121FFF77DFC4FF421
:101540001073BB801023FB710323BB713B1D034849
:101550001946FFF795FA0837BD4680BD001C0140CB
:1015600080B588B000AF02200121FFF783FC042082
:101570000121FFF761FC1D233B7700237B770123CB
:10158000BB770123FB7707F11C03184600F0F0F846
:1015900080233B830423FB760323BB7607F11803E8
:1015A00018481946FFF76CFA47233B804FF6FF7344
:1015B000BB800023FB8000237B803B4612481946FA
:1015C000FEF7B8FD0423BB810223FB8101233B828C
:1015D00000237B820023BB8207F10C030A481946D3
:1015E000FEF724FE08480121FEF774FE0648042198
:1015F0000122FEF78FFE054B00221A702037BD46F0
:1016000080BD00BF00080140000400403D000020F4
:1016100080B500AF0A480421FEF730FF0346012BD6
:101620000CD107480421FEF753FF0548FEF70AFFD7
:1016300003461A46034B1A6000F020F880BD00BF35
:10164000000400404400002080B400AF074B00229B
:101650001A60074B07221A70064B00221A70064BBD
:1016600000221A70BD465DF8047B704728000020F8
:101670002C0000202D0000202E00002080B582B01C
:1016800000AF164B1A68164B1B68D31A7B60134BBE
:101690001B68134A13607B68B3F5487F1AD97B68CF
:1016A00040F69702934215D80E480321FFF7FEFE3D
:1016B0000D487968FFF7AEFE0346DAB20B4B1A709D
:1016C0000A4B1B7808481946FFF7F0FE084802212C
:1016D000FFF7ECFE0837BD4680BD00BF4400002088
:1016E0004000002034180008100100203F000020B6
:1016F0003818000880B584B000AF0023FB730023C6
:10170000BB730023FB7321E015480321FFF7CEFED6
:10171000FB7B3133DBB21846FFF7DEFD11480121B8
:10172000FFF7C4FEFB7B104A52F823303A1D1046E7
:101730001946FFF76FFE0346BB73BB7B3A1D10468D
:101740001946FFF7B3FEFB7B0133FB73FB7B062BD4
:10175000DAD906480321FFF7A9FE1037BD4680BD40
:101760003C180008401800081C010020441800081C
:1017700080B487B000AF786000237B6100233B61B9
:101780000F23FB607B68DB78002B3AD0274BDB68AC
:10179000DB4303F4E0631B0A7B617B69C3F1040351
:1017A0003B617B69FA6822FA03F3FB607B685B7834
:1017B0001A463B6902FA03F37B617B689B781A4601
:1017C000FB6813407A6913437B617B691B017B6172
:1017D000174A7B681B787969C9B213440A4683F8B3
:1017E0000023134A7B681B785B09DBB218467B68D1
:1017F0001B7803F01F03012101FA03F342F82030A4
:101800000FE00B497B681B785B09DBB218467B68ED
:101810001B7803F01F0301229A4000F1200341F8D6
:1018200023201C37BD465DF8047B704700ED00E0C7
:1018300000E100E043683A002C0D00002C436800F2
:081840003A0000000D00000059
:10184800000000000102030401020304060708095E
:041858000204060878
:040000052000003D9A
:00000001FF
