:020000040800F2
:1000000000040020A90200080503000805030008F9
:1000100005030008050300080503000800000000B0
:1000200000000000000000000000000005030008C0
:100030000503000800000000050300080503000890
:100040000503000805030008050300080503000870
:100050000503000805030008050300080503000860
:100060000503000805030008050300080503000850
:100070000503000805030008050300080503000840
:100080000503000805030008050300080503000830
:100090000503000805030008050300080503000820
:1000A0000503000805030008050300080503000810
:1000B0000503000805030008050300080503000800
:1000C00005030008050300080503000805030008F0
:1000D00005030008050300080503000805030008E0
:1000E00005030008050300080503000805030008D0
:1000F00005030008050300080503000805030008C0
:1001000005030008050300080503000805030008AF
:10011000050300080503000805030008050300089F
:10012000050300080503000805030008050300088F
:100130005FF808F180B500AF154A154B1B6843F016
:10014000010313601249124B5A68124B13404B6063
:100150000F4A0F4B1B6823F0847323F48033136022
:100160000B4A0B4B1B6823F480231360084A084B8F
:100170005B6823F4FE035360054B4FF41F029A6043
:1001800000F00CF8044B4FF000629A6080BD00BF95
:10019000001002400000FFF800ED00E080B500AF65
:1001A00000F002F880BD00BF80B483B000AF002330
:1001B0007B6000233B603A4A394B1B6843F4803331
:1001C0001360374B1B6803F400333B607B680133DB
:1001D0007B603B68002B03D17B68B3F5A06FF0D147
:1001E0002F4B1B6803F40033002B02D001233B602C
:1001F00001E000233B603B68012B4BD1294A294B8E
:100200001B6843F010031360264A264B1B6823F03B
:1002100003031360234A234B1B6843F0020313605C
:100220001F4A1F4B5B6853601D4A1D4B5B68536040
:100230001B4A1B4B5B6843F480635360184A184B9E
:100240005B6823F47C135360154A154B5B6843F4D9
:10025000E8135360124A124B1B6843F0807313601B
:1002600000BF0F4B1B6803F00073002BF9D00C4A42
:100270000B4B5B6823F003035360094A084B5B6830
:1002800043F00203536000BF054B5B6803F00C03AF
:10029000082BF9D10C37BD465DF8047B704700BFD1
:1002A000001002400020024080B582B000AF104B29
:1002B0007B60104B3B6007E03B681A1D3A607A6830
:1002C000111D796012681A603B680B4A9342F3D3A0
:1002D0000A480B494FF000028842B8BF40F8042B8F
:1002E000FADBFFF727FF00F011F80837BD4680BDA5
:1002F000140300080000002000000020000000207F
:100300000000002080B400AFFEE700BF80B400AF63
:04031000FEE700BF45
:0400000508000000EF
:00000001FF
